{
  "contractName": "PropertyEscrow",
  "abi": [
    {
      "inputs": [
        {
          "internalType": "address",
          "name": "_seller",
          "type": "address"
        },
        {
          "internalType": "address",
          "name": "_arbiter",
          "type": "address"
        },
        {
          "internalType": "uint256",
          "name": "_propertyId",
          "type": "uint256"
        },
        {
          "internalType": "uint256",
          "name": "_releaseTime",
          "type": "uint256"
        }
      ],
      "stateMutability": "payable",
      "type": "constructor"
    },
    {
      "anonymous": false,
      "inputs": [
        {
          "indexed": false,
          "internalType": "address",
          "name": "to",
          "type": "address"
        },
        {
          "indexed": false,
          "internalType": "uint256",
          "name": "amount",
          "type": "uint256"
        }
      ],
      "name": "DisputeResolved",
      "type": "event"
    },
    {
      "anonymous": false,
      "inputs": [
        {
          "indexed": false,
          "internalType": "address",
          "name": "buyer",
          "type": "address"
        },
        {
          "indexed": false,
          "internalType": "uint256",
          "name": "amount",
          "type": "uint256"
        }
      ],
      "name": "FundsDeposited",
      "type": "event"
    },
    {
      "anonymous": false,
      "inputs": [
        {
          "indexed": false,
          "internalType": "address",
          "name": "seller",
          "type": "address"
        },
        {
          "indexed": false,
          "internalType": "uint256",
          "name": "amount",
          "type": "uint256"
        }
      ],
      "name": "FundsReleased",
      "type": "event"
    },
    {
      "inputs": [],
      "name": "amount",
      "outputs": [
        {
          "internalType": "uint256",
          "name": "",
          "type": "uint256"
        }
      ],
      "stateMutability": "view",
      "type": "function"
    },
    {
      "inputs": [],
      "name": "arbiter",
      "outputs": [
        {
          "internalType": "address",
          "name": "",
          "type": "address"
        }
      ],
      "stateMutability": "view",
      "type": "function"
    },
    {
      "inputs": [],
      "name": "buyer",
      "outputs": [
        {
          "internalType": "address",
          "name": "",
          "type": "address"
        }
      ],
      "stateMutability": "view",
      "type": "function"
    },
    {
      "inputs": [],
      "name": "fundsReleased",
      "outputs": [
        {
          "internalType": "bool",
          "name": "",
          "type": "bool"
        }
      ],
      "stateMutability": "view",
      "type": "function"
    },
    {
      "inputs": [],
      "name": "propertyId",
      "outputs": [
        {
          "internalType": "uint256",
          "name": "",
          "type": "uint256"
        }
      ],
      "stateMutability": "view",
      "type": "function"
    },
    {
      "inputs": [],
      "name": "releaseTime",
      "outputs": [
        {
          "internalType": "uint256",
          "name": "",
          "type": "uint256"
        }
      ],
      "stateMutability": "view",
      "type": "function"
    },
    {
      "inputs": [],
      "name": "seller",
      "outputs": [
        {
          "internalType": "address",
          "name": "",
          "type": "address"
        }
      ],
      "stateMutability": "view",
      "type": "function"
    },
    {
      "inputs": [],
      "name": "releaseFunds",
      "outputs": [],
      "stateMutability": "nonpayable",
      "type": "function"
    },
    {
      "inputs": [
        {
          "internalType": "address payable",
          "name": "_to",
          "type": "address"
        }
      ],
      "name": "resolveDispute",
      "outputs": [],
      "stateMutability": "nonpayable",
      "type": "function"
    },
    {
      "inputs": [],
      "name": "refundBuyer",
      "outputs": [],
      "stateMutability": "nonpayable",
      "type": "function"
    }
  ],
  "bytecode": "0x60806040526040516200101538038062001015833981810160405281019062000029919062000200565b335f806101000a81548173ffffffffffffffffffffffffffffffffffffffff021916908373ffffffffffffffffffffffffffffffffffffffff1602179055508360015f6101000a81548173ffffffffffffffffffffffffffffffffffffffff021916908373ffffffffffffffffffffffffffffffffffffffff1602179055508260025f6101000a81548173ffffffffffffffffffffffffffffffffffffffff021916908373ffffffffffffffffffffffffffffffffffffffff1602179055508160038190555034600481905550806005819055507f543ba50a5eec5e6178218e364b1d0f396157b3c8fa278522c2cb7fd99407d4745f8054906101000a900473ffffffffffffffffffffffffffffffffffffffff166004546040516200015192919062000291565b60405180910390a150505050620002bc565b5f80fd5b5f73ffffffffffffffffffffffffffffffffffffffff82169050919050565b5f620001928262000167565b9050919050565b620001a48162000186565b8114620001af575f80fd5b50565b5f81519050620001c28162000199565b92915050565b5f819050919050565b620001dc81620001c8565b8114620001e7575f80fd5b50565b5f81519050620001fa81620001d1565b92915050565b5f805f80608085870312156200021b576200021a62000163565b5b5f6200022a87828801620001b2565b94505060206200023d87828801620001b2565b93505060406200025087828801620001ea565b92505060606200026387828801620001ea565b91505092959194509250565b6200027a8162000186565b82525050565b6200028b81620001c8565b82525050565b5f604082019050620002a65f8301856200026f565b620002b5602083018462000280565b9392505050565b610d4b80620002ca5f395ff3fe608060405234801561000f575f80fd5b506004361061009c575f3560e01c8063b91d400111610064578063b91d400114610122578063d846118214610140578063e8a61cc81461015c578063ee7a3b8e14610166578063fe25e00a146101845761009c565b806308551a53146100a057806369d89575146100be5780637150d8ae146100c8578063aa8c217c146100e6578063b564e92614610104575b5f80fd5b6100a86101a2565b6040516100b591906108a5565b60405180910390f35b6100c66101c7565b005b6100d0610475565b6040516100dd91906108a5565b60405180910390f35b6100ee610498565b6040516100fb91906108d6565b60405180910390f35b61010c61049e565b6040516101199190610909565b60405180910390f35b61012a6104b0565b60405161013791906108d6565b60405180910390f35b61015a60048036038101906101559190610961565b6104b6565b005b610164610632565b005b61016e61083b565b60405161017b91906108d6565b60405180910390f35b61018c610841565b60405161019991906108a5565b60405180910390f35b60015f9054906101000a900473ffffffffffffffffffffffffffffffffffffffff1681565b60055442101561020c576040517f08c379a0000000000000000000000000000000000000000000000000000000008152600401610203906109e6565b60405180910390fd5b60065f9054906101000a900460ff161561025b576040517f08c379a000000000000000000000000000000000000000000000000000000000815260040161025290610a4e565b60405180910390fd5b5f8054906101000a900473ffffffffffffffffffffffffffffffffffffffff1673ffffffffffffffffffffffffffffffffffffffff163373ffffffffffffffffffffffffffffffffffffffff161480610300575060015f9054906101000a900473ffffffffffffffffffffffffffffffffffffffff1673ffffffffffffffffffffffffffffffffffffffff163373ffffffffffffffffffffffffffffffffffffffff16145b80610357575060025f9054906101000a900473ffffffffffffffffffffffffffffffffffffffff1673ffffffffffffffffffffffffffffffffffffffff163373ffffffffffffffffffffffffffffffffffffffff16145b610396576040517f08c379a000000000000000000000000000000000000000000000000000000000815260040161038d90610ab6565b60405180910390fd5b60015f9054906101000a900473ffffffffffffffffffffffffffffffffffffffff1673ffffffffffffffffffffffffffffffffffffffff166108fc60045490811502906040515f60405180830381858888f193505050501580156103fc573d5f803e3d5ffd5b50600160065f6101000a81548160ff0219169083151502179055507f221c08a06b07a64803b3787861a3f276212fcccb51c2e6234077a9b8cb13047a60015f9054906101000a900473ffffffffffffffffffffffffffffffffffffffff1660045460405161046b929190610ad4565b60405180910390a1565b5f8054906101000a900473ffffffffffffffffffffffffffffffffffffffff1681565b60045481565b60065f9054906101000a900460ff1681565b60055481565b60025f9054906101000a900473ffffffffffffffffffffffffffffffffffffffff1673ffffffffffffffffffffffffffffffffffffffff163373ffffffffffffffffffffffffffffffffffffffff1614610545576040517f08c379a000000000000000000000000000000000000000000000000000000000815260040161053c90610b45565b60405180910390fd5b60065f9054906101000a900460ff1615610594576040517f08c379a000000000000000000000000000000000000000000000000000000000815260040161058b90610a4e565b60405180910390fd5b8073ffffffffffffffffffffffffffffffffffffffff166108fc60045490811502906040515f60405180830381858888f193505050501580156105d9573d5f803e3d5ffd5b50600160065f6101000a81548160ff0219169083151502179055507ff396531fad1d4dc2cd92386cdea800c92a507f8fe1bdb80313eb32a57481b1dc81600454604051610627929190610bbe565b60405180910390a150565b62093a806005546106439190610c12565b4211610684576040517f08c379a000000000000000000000000000000000000000000000000000000000815260040161067b90610c8f565b60405180910390fd5b60065f9054906101000a900460ff16156106d3576040517f08c379a00000000000000000000000000000000000000000000000000000000081526004016106ca90610a4e565b60405180910390fd5b5f8054906101000a900473ffffffffffffffffffffffffffffffffffffffff1673ffffffffffffffffffffffffffffffffffffffff163373ffffffffffffffffffffffffffffffffffffffff1614610760576040517f08c379a000000000000000000000000000000000000000000000000000000000815260040161075790610cf7565b60405180910390fd5b5f8054906101000a900473ffffffffffffffffffffffffffffffffffffffff1673ffffffffffffffffffffffffffffffffffffffff166108fc60045490811502906040515f60405180830381858888f193505050501580156107c4573d5f803e3d5ffd5b50600160065f6101000a81548160ff0219169083151502179055507ff396531fad1d4dc2cd92386cdea800c92a507f8fe1bdb80313eb32a57481b1dc5f8054906101000a900473ffffffffffffffffffffffffffffffffffffffff16600454604051610831929190610ad4565b60405180910390a1565b60035481565b60025f9054906101000a900473ffffffffffffffffffffffffffffffffffffffff1681565b5f73ffffffffffffffffffffffffffffffffffffffff82169050919050565b5f61088f82610866565b9050919050565b61089f81610885565b82525050565b5f6020820190506108b85f830184610896565b92915050565b5f819050919050565b6108d0816108be565b82525050565b5f6020820190506108e95f8301846108c7565b92915050565b5f8115159050919050565b610903816108ef565b82525050565b5f60208201905061091c5f8301846108fa565b92915050565b5f80fd5b5f61093082610866565b9050919050565b61094081610926565b811461094a575f80fd5b50565b5f8135905061095b81610937565b92915050565b5f6020828403121561097657610975610922565b5b5f6109838482850161094d565b91505092915050565b5f82825260208201905092915050565b7f546f6f206561726c7900000000000000000000000000000000000000000000005f82015250565b5f6109d060098361098c565b91506109db8261099c565b602082019050919050565b5f6020820190508181035f8301526109fd816109c4565b9050919050565b7f416c72656164792072656c6561736564000000000000000000000000000000005f82015250565b5f610a3860108361098c565b9150610a4382610a04565b602082019050919050565b5f6020820190508181035f830152610a6581610a2c565b9050919050565b7f556e617574686f72697a656400000000000000000000000000000000000000005f82015250565b5f610aa0600c8361098c565b9150610aab82610a6c565b602082019050919050565b5f6020820190508181035f830152610acd81610a94565b9050919050565b5f604082019050610ae75f830185610896565b610af460208301846108c7565b9392505050565b7f4f6e6c79206172626974657200000000000000000000000000000000000000005f82015250565b5f610b2f600c8361098c565b9150610b3a82610afb565b602082019050919050565b5f6020820190508181035f830152610b5c81610b23565b9050919050565b5f819050919050565b5f610b86610b81610b7c84610866565b610b63565b610866565b9050919050565b5f610b9782610b6c565b9050919050565b5f610ba882610b8d565b9050919050565b610bb881610b9e565b82525050565b5f604082019050610bd15f830185610baf565b610bde60208301846108c7565b9392505050565b7f4e487b71000000000000000000000000000000000000000000000000000000005f52601160045260245ffd5b5f610c1c826108be565b9150610c27836108be565b9250828201905080821115610c3f57610c3e610be5565b5b92915050565b7f446973707574652077696e646f77206f70656e000000000000000000000000005f82015250565b5f610c7960138361098c565b9150610c8482610c45565b602082019050919050565b5f6020820190508181035f830152610ca681610c6d565b9050919050565b7f4f6e6c79206275796572000000000000000000000000000000000000000000005f82015250565b5f610ce1600a8361098c565b9150610cec82610cad565b602082019050919050565b5f6020820190508181035f830152610d0e81610cd5565b905091905056fea26469706673582212207a306713e3f3aa30c7985632619c2c686e164efffe7f2c51864fdb8afaee84d064736f6c63430008150033",
  "immutableReferences": {},
  "source": "// SPDX-License-Identifier: UNLICENSED\r\npragma solidity ^0.8.0;\r\n\r\ncontract PropertyEscrow {\r\n    address public buyer;\r\n    address public seller;\r\n    address public arbiter; // Optional for manual disputes\r\n    uint256 public propertyId;\r\n    uint256 public amount;\r\n    uint256 public releaseTime; // Timestamp for auto-release\r\n    bool public fundsReleased;\r\n\r\n    event FundsDeposited(address buyer, uint256 amount);\r\n    event FundsReleased(address seller, uint256 amount);\r\n    event DisputeResolved(address to, uint256 amount);\r\n\r\n    constructor(address _seller, address _arbiter, uint256 _propertyId, uint256 _releaseTime) payable {\r\n        buyer = msg.sender;\r\n        seller = _seller;\r\n        arbiter = _arbiter;\r\n        propertyId = _propertyId;\r\n        amount = msg.value;\r\n        releaseTime = _releaseTime;\r\n        emit FundsDeposited(buyer, amount);\r\n    }\r\n\r\n    function releaseFunds() external {\r\n        require(block.timestamp >= releaseTime, \"Too early\");\r\n        require(!fundsReleased, \"Already released\");\r\n        require(msg.sender == buyer || msg.sender == seller || msg.sender == arbiter, \"Unauthorized\");\r\n        payable(seller).transfer(amount);\r\n        fundsReleased = true;\r\n        emit FundsReleased(seller, amount);\r\n    }\r\n\r\n    function resolveDispute(address payable _to) external {\r\n        require(msg.sender == arbiter, \"Only arbiter\");\r\n        require(!fundsReleased, \"Already released\");\r\n        _to.transfer(amount);\r\n        fundsReleased = true;\r\n        emit DisputeResolved(_to, amount);\r\n    }\r\n\r\n    // Automated refund if timeout without release (dispute resolution)\r\n    function refundBuyer() external {\r\n        require(block.timestamp > releaseTime + 7 days, \"Dispute window open\");\r\n        require(!fundsReleased, \"Already released\");\r\n        require(msg.sender == buyer, \"Only buyer\");\r\n        payable(buyer).transfer(amount);\r\n        fundsReleased = true;\r\n        emit DisputeResolved(buyer, amount);\r\n    }\r\n}",
  "sourcePath": "E:\\Lakehead\\BlockChain\\Final_Project\\PropertyChain\\propertychain-truffle\\contracts\\PropertyEscrow.sol",
  "compiler": {
    "name": "solc",
    "version": "0.8.21+commit.d9974bed.Emscripten.clang"
  },
  "schemaVersion": "3.4.16",
  "updatedAt": "2025-08-18T18:17:18.628Z",
  "devdoc": {
    "kind": "dev",
    "methods": {},
    "version": 1
  },
  "userdoc": {
    "kind": "user",
    "methods": {},
    "version": 1
  }
}