{
  "contractName": "PropertyOwnership",
  "abi": [
    {
      "inputs": [],
      "stateMutability": "nonpayable",
      "type": "constructor"
    },
    {
      "anonymous": false,
      "inputs": [
        {
          "indexed": false,
          "internalType": "uint256",
          "name": "propertyId",
          "type": "uint256"
        },
        {
          "indexed": false,
          "internalType": "address",
          "name": "from",
          "type": "address"
        },
        {
          "indexed": false,
          "internalType": "address",
          "name": "to",
          "type": "address"
        }
      ],
      "name": "OwnershipTransferred",
      "type": "event"
    },
    {
      "inputs": [],
      "name": "contractOwner",
      "outputs": [
        {
          "internalType": "address",
          "name": "",
          "type": "address"
        }
      ],
      "stateMutability": "view",
      "type": "function"
    },
    {
      "inputs": [
        {
          "internalType": "uint256",
          "name": "",
          "type": "uint256"
        }
      ],
      "name": "properties",
      "outputs": [
        {
          "internalType": "uint256",
          "name": "propertyId",
          "type": "uint256"
        },
        {
          "internalType": "address",
          "name": "currentOwner",
          "type": "address"
        },
        {
          "internalType": "string",
          "name": "propertyAddress",
          "type": "string"
        },
        {
          "internalType": "string",
          "name": "description",
          "type": "string"
        }
      ],
      "stateMutability": "view",
      "type": "function"
    },
    {
      "inputs": [],
      "name": "propertyCount",
      "outputs": [
        {
          "internalType": "uint256",
          "name": "",
          "type": "uint256"
        }
      ],
      "stateMutability": "view",
      "type": "function"
    },
    {
      "inputs": [
        {
          "internalType": "address",
          "name": "_currentOwner",
          "type": "address"
        },
        {
          "internalType": "string",
          "name": "_propertyAddress",
          "type": "string"
        },
        {
          "internalType": "string",
          "name": "_description",
          "type": "string"
        }
      ],
      "name": "addProperty",
      "outputs": [
        {
          "internalType": "bool",
          "name": "",
          "type": "bool"
        }
      ],
      "stateMutability": "nonpayable",
      "type": "function"
    },
    {
      "inputs": [
        {
          "internalType": "uint256",
          "name": "_propertyId",
          "type": "uint256"
        },
        {
          "internalType": "address",
          "name": "_newOwner",
          "type": "address"
        }
      ],
      "name": "transferOwnership",
      "outputs": [
        {
          "internalType": "bool",
          "name": "",
          "type": "bool"
        }
      ],
      "stateMutability": "nonpayable",
      "type": "function"
    },
    {
      "inputs": [
        {
          "internalType": "uint256",
          "name": "_propertyId",
          "type": "uint256"
        }
      ],
      "name": "getPropertyDetails",
      "outputs": [
        {
          "internalType": "string",
          "name": "",
          "type": "string"
        },
        {
          "internalType": "address",
          "name": "",
          "type": "address"
        },
        {
          "internalType": "address[]",
          "name": "",
          "type": "address[]"
        },
        {
          "internalType": "string",
          "name": "",
          "type": "string"
        }
      ],
      "stateMutability": "view",
      "type": "function"
    },
    {
      "inputs": [
        {
          "internalType": "uint256",
          "name": "_propertyId",
          "type": "uint256"
        }
      ],
      "name": "getCurrentOwner",
      "outputs": [
        {
          "internalType": "address",
          "name": "",
          "type": "address"
        }
      ],
      "stateMutability": "view",
      "type": "function"
    }
  ],
  "bytecode": "0x608060405234801561000f575f80fd5b50335f806101000a81548173ffffffffffffffffffffffffffffffffffffffff021916908373ffffffffffffffffffffffffffffffffffffffff1602179055506115418061005c5f395ff3fe608060405234801561000f575f80fd5b506004361061007b575f3560e01c80637ace341b116100595780637ace341b14610112578063c361a33514610142578063ce606ee014610160578063f7b108081461017e5761007b565b8063126dbe431461007f5780631ee90a5f146100b257806329507f73146100e2575b5f80fd5b61009960048036038101906100949190610b7d565b6101b1565b6040516100a99493929190610d28565b60405180910390f35b6100cc60048036038101906100c79190610ed6565b610403565b6040516100d99190610f78565b60405180910390f35b6100fc60048036038101906100f79190610f91565b610623565b6040516101099190610f78565b60405180910390f35b61012c60048036038101906101279190610b7d565b6108db565b6040516101399190610fcf565b60405180910390f35b61014a610917565b6040516101579190610ff7565b60405180910390f35b61016861091d565b6040516101759190610fcf565b60405180910390f35b61019860048036038101906101939190610b7d565b610940565b6040516101a89493929190611010565b60405180910390f35b60605f6060805f60015f8781526020019081526020015f206040518060a00160405290815f8201548152602001600182015f9054906101000a900473ffffffffffffffffffffffffffffffffffffffff1673ffffffffffffffffffffffffffffffffffffffff1673ffffffffffffffffffffffffffffffffffffffff1681526020016002820180546102429061108e565b80601f016020809104026020016040519081016040528092919081815260200182805461026e9061108e565b80156102b95780601f10610290576101008083540402835291602001916102b9565b820191905f5260205f20905b81548152906001019060200180831161029c57829003601f168201915b505050505081526020016003820180546102d29061108e565b80601f01602080910402602001604051908101604052809291908181526020018280546102fe9061108e565b80156103495780601f1061032057610100808354040283529160200191610349565b820191905f5260205f20905b81548152906001019060200180831161032c57829003601f168201915b50505050508152602001600482018054806020026020016040519081016040528092919081815260200182805480156103d457602002820191905f5260205f20905b815f9054906101000a900473ffffffffffffffffffffffffffffffffffffffff1673ffffffffffffffffffffffffffffffffffffffff168152602001906001019080831161038b575b505050505081525050905080604001518160200151826080015183606001519450945094509450509193509193565b5f805f9054906101000a900473ffffffffffffffffffffffffffffffffffffffff1673ffffffffffffffffffffffffffffffffffffffff163373ffffffffffffffffffffffffffffffffffffffff16148061048957508373ffffffffffffffffffffffffffffffffffffffff163373ffffffffffffffffffffffffffffffffffffffff16145b6104c8576040517f08c379a00000000000000000000000000000000000000000000000000000000081526004016104bf90611108565b60405180910390fd5b60025f8154809291906104da90611153565b91905055505f8067ffffffffffffffff8111156104fa576104f9610db2565b5b6040519080825280602002602001820160405280156105285781602001602082028036833780820191505090505b5090506040518060a0016040528060025481526020018673ffffffffffffffffffffffffffffffffffffffff1681526020018581526020018481526020018281525060015f60025481526020019081526020015f205f820151815f01556020820151816001015f6101000a81548173ffffffffffffffffffffffffffffffffffffffff021916908373ffffffffffffffffffffffffffffffffffffffff16021790555060408201518160020190816105e09190611337565b5060608201518160030190816105f69190611337565b506080820151816004019080519060200190610613929190610a97565b5090505060019150509392505050565b5f3373ffffffffffffffffffffffffffffffffffffffff1660015f8581526020019081526020015f206001015f9054906101000a900473ffffffffffffffffffffffffffffffffffffffff1673ffffffffffffffffffffffffffffffffffffffff16146106c5576040517f08c379a00000000000000000000000000000000000000000000000000000000081526004016106bc90611450565b60405180910390fd5b5f73ffffffffffffffffffffffffffffffffffffffff168273ffffffffffffffffffffffffffffffffffffffff1614158015610760575060015f8481526020019081526020015f206001015f9054906101000a900473ffffffffffffffffffffffffffffffffffffffff1673ffffffffffffffffffffffffffffffffffffffff168273ffffffffffffffffffffffffffffffffffffffff1614155b61079f576040517f08c379a0000000000000000000000000000000000000000000000000000000008152600401610796906114b8565b60405180910390fd5b60015f8481526020019081526020015f2060040160015f8581526020019081526020015f206001015f9054906101000a900473ffffffffffffffffffffffffffffffffffffffff16908060018154018082558091505060019003905f5260205f20015f9091909190916101000a81548173ffffffffffffffffffffffffffffffffffffffff021916908373ffffffffffffffffffffffffffffffffffffffff1602179055508160015f8581526020019081526020015f206001015f6101000a81548173ffffffffffffffffffffffffffffffffffffffff021916908373ffffffffffffffffffffffffffffffffffffffff1602179055507f16b85f49bf01212961345d3016c9a531894accf62eb7680f2045d79185cc0ec08333846040516108c9939291906114d6565b60405180910390a16001905092915050565b5f60015f8381526020019081526020015f206001015f9054906101000a900473ffffffffffffffffffffffffffffffffffffffff169050919050565b60025481565b5f8054906101000a900473ffffffffffffffffffffffffffffffffffffffff1681565b6001602052805f5260405f205f91509050805f015490806001015f9054906101000a900473ffffffffffffffffffffffffffffffffffffffff169080600201805461098a9061108e565b80601f01602080910402602001604051908101604052809291908181526020018280546109b69061108e565b8015610a015780601f106109d857610100808354040283529160200191610a01565b820191905f5260205f20905b8154815290600101906020018083116109e457829003601f168201915b505050505090806003018054610a169061108e565b80601f0160208091040260200160405190810160405280929190818152602001828054610a429061108e565b8015610a8d5780601f10610a6457610100808354040283529160200191610a8d565b820191905f5260205f20905b815481529060010190602001808311610a7057829003601f168201915b5050505050905084565b828054828255905f5260205f20908101928215610b0d579160200282015b82811115610b0c578251825f6101000a81548173ffffffffffffffffffffffffffffffffffffffff021916908373ffffffffffffffffffffffffffffffffffffffff16021790555091602001919060010190610ab5565b5b509050610b1a9190610b1e565b5090565b5b80821115610b35575f815f905550600101610b1f565b5090565b5f604051905090565b5f80fd5b5f80fd5b5f819050919050565b610b5c81610b4a565b8114610b66575f80fd5b50565b5f81359050610b7781610b53565b92915050565b5f60208284031215610b9257610b91610b42565b5b5f610b9f84828501610b69565b91505092915050565b5f81519050919050565b5f82825260208201905092915050565b5f5b83811015610bdf578082015181840152602081019050610bc4565b5f8484015250505050565b5f601f19601f8301169050919050565b5f610c0482610ba8565b610c0e8185610bb2565b9350610c1e818560208601610bc2565b610c2781610bea565b840191505092915050565b5f73ffffffffffffffffffffffffffffffffffffffff82169050919050565b5f610c5b82610c32565b9050919050565b610c6b81610c51565b82525050565b5f81519050919050565b5f82825260208201905092915050565b5f819050602082019050919050565b610ca381610c51565b82525050565b5f610cb48383610c9a565b60208301905092915050565b5f602082019050919050565b5f610cd682610c71565b610ce08185610c7b565b9350610ceb83610c8b565b805f5b83811015610d1b578151610d028882610ca9565b9750610d0d83610cc0565b925050600181019050610cee565b5085935050505092915050565b5f6080820190508181035f830152610d408187610bfa565b9050610d4f6020830186610c62565b8181036040830152610d618185610ccc565b90508181036060830152610d758184610bfa565b905095945050505050565b610d8981610c51565b8114610d93575f80fd5b50565b5f81359050610da481610d80565b92915050565b5f80fd5b5f80fd5b7f4e487b71000000000000000000000000000000000000000000000000000000005f52604160045260245ffd5b610de882610bea565b810181811067ffffffffffffffff82111715610e0757610e06610db2565b5b80604052505050565b5f610e19610b39565b9050610e258282610ddf565b919050565b5f67ffffffffffffffff821115610e4457610e43610db2565b5b610e4d82610bea565b9050602081019050919050565b828183375f83830152505050565b5f610e7a610e7584610e2a565b610e10565b905082815260208101848484011115610e9657610e95610dae565b5b610ea1848285610e5a565b509392505050565b5f82601f830112610ebd57610ebc610daa565b5b8135610ecd848260208601610e68565b91505092915050565b5f805f60608486031215610eed57610eec610b42565b5b5f610efa86828701610d96565b935050602084013567ffffffffffffffff811115610f1b57610f1a610b46565b5b610f2786828701610ea9565b925050604084013567ffffffffffffffff811115610f4857610f47610b46565b5b610f5486828701610ea9565b9150509250925092565b5f8115159050919050565b610f7281610f5e565b82525050565b5f602082019050610f8b5f830184610f69565b92915050565b5f8060408385031215610fa757610fa6610b42565b5b5f610fb485828601610b69565b9250506020610fc585828601610d96565b9150509250929050565b5f602082019050610fe25f830184610c62565b92915050565b610ff181610b4a565b82525050565b5f60208201905061100a5f830184610fe8565b92915050565b5f6080820190506110235f830187610fe8565b6110306020830186610c62565b81810360408301526110428185610bfa565b905081810360608301526110568184610bfa565b905095945050505050565b7f4e487b71000000000000000000000000000000000000000000000000000000005f52602260045260245ffd5b5f60028204905060018216806110a557607f821691505b6020821081036110b8576110b7611061565b5b50919050565b7f556e617574686f72697a656400000000000000000000000000000000000000005f82015250565b5f6110f2600c83610bb2565b91506110fd826110be565b602082019050919050565b5f6020820190508181035f83015261111f816110e6565b9050919050565b7f4e487b71000000000000000000000000000000000000000000000000000000005f52601160045260245ffd5b5f61115d82610b4a565b91507fffffffffffffffffffffffffffffffffffffffffffffffffffffffffffffffff820361118f5761118e611126565b5b600182019050919050565b5f819050815f5260205f209050919050565b5f6020601f8301049050919050565b5f82821b905092915050565b5f600883026111f67fffffffffffffffffffffffffffffffffffffffffffffffffffffffffffffffff826111bb565b61120086836111bb565b95508019841693508086168417925050509392505050565b5f819050919050565b5f61123b61123661123184610b4a565b611218565b610b4a565b9050919050565b5f819050919050565b61125483611221565b61126861126082611242565b8484546111c7565b825550505050565b5f90565b61127c611270565b61128781848461124b565b505050565b5b818110156112aa5761129f5f82611274565b60018101905061128d565b5050565b601f8211156112ef576112c08161119a565b6112c9846111ac565b810160208510156112d8578190505b6112ec6112e4856111ac565b83018261128c565b50505b505050565b5f82821c905092915050565b5f61130f5f19846008026112f4565b1980831691505092915050565b5f6113278383611300565b9150826002028217905092915050565b61134082610ba8565b67ffffffffffffffff81111561135957611358610db2565b5b611363825461108e565b61136e8282856112ae565b5f60209050601f83116001811461139f575f841561138d578287015190505b611397858261131c565b8655506113fe565b601f1984166113ad8661119a565b5f5b828110156113d4578489015182556001820191506020850194506020810190506113af565b868310156113f157848901516113ed601f891682611300565b8355505b6001600288020188555050505b505050505050565b7f4e6f7420746865206f776e6572000000000000000000000000000000000000005f82015250565b5f61143a600d83610bb2565b915061144582611406565b602082019050919050565b5f6020820190508181035f8301526114678161142e565b9050919050565b7f496e76616c6964207472616e73666572000000000000000000000000000000005f82015250565b5f6114a2601083610bb2565b91506114ad8261146e565b602082019050919050565b5f6020820190508181035f8301526114cf81611496565b9050919050565b5f6060820190506114e95f830186610fe8565b6114f66020830185610c62565b6115036040830184610c62565b94935050505056fea26469706673582212208b0bdefd8ca5055e6cbdef9a30753c58489d5299a466e46b26fb51677e8b43bb64736f6c63430008150033",
  "immutableReferences": {},
  "source": "// SPDX-License-Identifier: UNLICENSED\r\npragma solidity ^0.8.0;\r\n\r\ncontract PropertyOwnership {\r\n    address public contractOwner;\r\n\r\n    struct PropertyDetails {\r\n        uint256 propertyId;\r\n        address currentOwner;\r\n        string propertyAddress; // e.g., \"123 Main St\"\r\n        string description; // Added for listing\r\n        address[] previousOwners; // Chain of ownership\r\n    }\r\n\r\n    mapping(uint256 => PropertyDetails) public properties;\r\n    uint256 public propertyCount;\r\n\r\n    event OwnershipTransferred(uint256 propertyId, address from, address to);\r\n\r\n    constructor() {\r\n        contractOwner = msg.sender;\r\n    }\r\n\r\n    function addProperty(address _currentOwner, string memory _propertyAddress, string memory _description) public returns (bool) {\r\n        require(msg.sender == contractOwner || msg.sender == _currentOwner, \"Unauthorized\");\r\n        propertyCount++;\r\n        address[] memory prev = new address[](0);\r\n        properties[propertyCount] = PropertyDetails(propertyCount, _currentOwner, _propertyAddress, _description, prev);\r\n        return true;\r\n    }\r\n\r\n    function transferOwnership(uint256 _propertyId, address _newOwner) public returns (bool) {\r\n        require(properties[_propertyId].currentOwner == msg.sender, \"Not the owner\");\r\n        require(_newOwner != address(0) && _newOwner != properties[_propertyId].currentOwner, \"Invalid transfer\");\r\n        properties[_propertyId].previousOwners.push(properties[_propertyId].currentOwner);\r\n        properties[_propertyId].currentOwner = _newOwner;\r\n        emit OwnershipTransferred(_propertyId, msg.sender, _newOwner);\r\n        return true;\r\n    }\r\n\r\n    function getPropertyDetails(uint256 _propertyId) public view returns (string memory, address, address[] memory, string memory) {\r\n        PropertyDetails memory prop = properties[_propertyId];\r\n        return (prop.propertyAddress, prop.currentOwner, prop.previousOwners, prop.description);\r\n    }\r\n\r\n    function getCurrentOwner(uint256 _propertyId) public view returns (address) {\r\n        return properties[_propertyId].currentOwner;\r\n    }\r\n}",
  "sourcePath": "E:\\Lakehead\\BlockChain\\Final_Project\\PropertyChain\\propertychain-truffle\\contracts\\PropertyOwnership.sol",
  "compiler": {
    "name": "solc",
    "version": "0.8.21+commit.d9974bed.Emscripten.clang"
  },
  "schemaVersion": "3.4.16",
  "updatedAt": "2025-08-18T18:17:18.634Z",
  "devdoc": {
    "kind": "dev",
    "methods": {},
    "version": 1
  },
  "userdoc": {
    "kind": "user",
    "methods": {},
    "version": 1
  }
}