{
  "contractName": "PropertyOwnership",
  "abi": [
    {
      "inputs": [],
      "stateMutability": "nonpayable",
      "type": "constructor"
    },
    {
      "anonymous": false,
      "inputs": [
        {
          "indexed": false,
          "internalType": "uint256",
          "name": "propertyId",
          "type": "uint256"
        },
        {
          "indexed": false,
          "internalType": "address",
          "name": "from",
          "type": "address"
        },
        {
          "indexed": false,
          "internalType": "address",
          "name": "to",
          "type": "address"
        }
      ],
      "name": "OwnershipTransferred",
      "type": "event"
    },
    {
      "inputs": [],
      "name": "contractOwner",
      "outputs": [
        {
          "internalType": "address",
          "name": "",
          "type": "address"
        }
      ],
      "stateMutability": "view",
      "type": "function",
      "constant": true
    },
    {
      "inputs": [
        {
          "internalType": "uint256",
          "name": "",
          "type": "uint256"
        }
      ],
      "name": "properties",
      "outputs": [
        {
          "internalType": "uint256",
          "name": "propertyId",
          "type": "uint256"
        },
        {
          "internalType": "address",
          "name": "currentOwner",
          "type": "address"
        },
        {
          "internalType": "string",
          "name": "propertyAddress",
          "type": "string"
        },
        {
          "internalType": "string",
          "name": "description",
          "type": "string"
        }
      ],
      "stateMutability": "view",
      "type": "function",
      "constant": true
    },
    {
      "inputs": [],
      "name": "propertyCount",
      "outputs": [
        {
          "internalType": "uint256",
          "name": "",
          "type": "uint256"
        }
      ],
      "stateMutability": "view",
      "type": "function",
      "constant": true
    },
    {
      "inputs": [
        {
          "internalType": "address",
          "name": "_currentOwner",
          "type": "address"
        },
        {
          "internalType": "string",
          "name": "_propertyAddress",
          "type": "string"
        },
        {
          "internalType": "string",
          "name": "_description",
          "type": "string"
        }
      ],
      "name": "addProperty",
      "outputs": [
        {
          "internalType": "bool",
          "name": "",
          "type": "bool"
        }
      ],
      "stateMutability": "nonpayable",
      "type": "function"
    },
    {
      "inputs": [
        {
          "internalType": "uint256",
          "name": "_propertyId",
          "type": "uint256"
        },
        {
          "internalType": "address",
          "name": "_newOwner",
          "type": "address"
        }
      ],
      "name": "transferOwnership",
      "outputs": [
        {
          "internalType": "bool",
          "name": "",
          "type": "bool"
        }
      ],
      "stateMutability": "nonpayable",
      "type": "function"
    },
    {
      "inputs": [
        {
          "internalType": "uint256",
          "name": "_propertyId",
          "type": "uint256"
        }
      ],
      "name": "getPropertyDetails",
      "outputs": [
        {
          "internalType": "string",
          "name": "",
          "type": "string"
        },
        {
          "internalType": "address",
          "name": "",
          "type": "address"
        },
        {
          "internalType": "address[]",
          "name": "",
          "type": "address[]"
        },
        {
          "internalType": "string",
          "name": "",
          "type": "string"
        }
      ],
      "stateMutability": "view",
      "type": "function",
      "constant": true
    },
    {
      "inputs": [
        {
          "internalType": "uint256",
          "name": "_propertyId",
          "type": "uint256"
        }
      ],
      "name": "getCurrentOwner",
      "outputs": [
        {
          "internalType": "address",
          "name": "",
          "type": "address"
        }
      ],
      "stateMutability": "view",
      "type": "function",
      "constant": true
    }
  ],
  "bytecode": "0x608060405234801561001057600080fd5b50336000806101000a81548173ffffffffffffffffffffffffffffffffffffffff021916908373ffffffffffffffffffffffffffffffffffffffff160217905550611461806100606000396000f3fe608060405234801561001057600080fd5b506004361061007d5760003560e01c80637ace341b1161005b5780637ace341b14610115578063c361a33514610145578063ce606ee014610163578063f7b10808146101815761007d565b8063126dbe43146100825780631ee90a5f146100b557806329507f73146100e5575b600080fd5b61009c60048036038101906100979190610d9f565b6101b4565b6040516100ac9493929190611025565b60405180910390f35b6100cf60048036038101906100ca9190610d20565b610413565b6040516100dc919061100a565b60405180910390f35b6100ff60048036038101906100fa9190610dc8565b6106cc565b60405161010c919061100a565b60405180910390f35b61012f600480360381019061012a9190610d9f565b610997565b60405161013c9190610fef565b60405180910390f35b61014d6109d7565b60405161015a91906110ff565b60405180910390f35b61016b6109dd565b6040516101789190610fef565b60405180910390f35b61019b60048036038101906101969190610d9f565b610a01565b6040516101ab9493929190611151565b60405180910390f35b606060006060806000600160008781526020019081526020016000206040518060a0016040529081600082015481526020016001820160009054906101000a900473ffffffffffffffffffffffffffffffffffffffff1673ffffffffffffffffffffffffffffffffffffffff1673ffffffffffffffffffffffffffffffffffffffff16815260200160028201805461024b906112e4565b80601f0160208091040260200160405190810160405280929190818152602001828054610277906112e4565b80156102c45780601f10610299576101008083540402835291602001916102c4565b820191906000526020600020905b8154815290600101906020018083116102a757829003601f168201915b505050505081526020016003820180546102dd906112e4565b80601f0160208091040260200160405190810160405280929190818152602001828054610309906112e4565b80156103565780601f1061032b57610100808354040283529160200191610356565b820191906000526020600020905b81548152906001019060200180831161033957829003601f168201915b50505050508152602001600482018054806020026020016040519081016040528092919081815260200182805480156103e457602002820191906000526020600020905b8160009054906101000a900473ffffffffffffffffffffffffffffffffffffffff1673ffffffffffffffffffffffffffffffffffffffff168152602001906001019080831161039a575b505050505081525050905080604001518160200151826080015183606001519450945094509450509193509193565b60008060009054906101000a900473ffffffffffffffffffffffffffffffffffffffff1673ffffffffffffffffffffffffffffffffffffffff163373ffffffffffffffffffffffffffffffffffffffff16148061049b57508373ffffffffffffffffffffffffffffffffffffffff163373ffffffffffffffffffffffffffffffffffffffff16145b6104da576040517f08c379a00000000000000000000000000000000000000000000000000000000081526004016104d1906110bf565b60405180910390fd5b600260008154809291906104ed90611316565b919050555060008067ffffffffffffffff811115610534577f4e487b7100000000000000000000000000000000000000000000000000000000600052604160045260246000fd5b6040519080825280602002602001820160405280156105625781602001602082028036833780820191505090505b5090506040518060a0016040528060025481526020018673ffffffffffffffffffffffffffffffffffffffff168152602001858152602001848152602001828152506001600060025481526020019081526020016000206000820151816000015560208201518160010160006101000a81548173ffffffffffffffffffffffffffffffffffffffff021916908373ffffffffffffffffffffffffffffffffffffffff1602179055506040820151816002019080519060200190610626929190610b61565b506060820151816003019080519060200190610643929190610b61565b506080820151816004019080519060200190610660929190610be7565b5090505060025460016000600254815260200190815260200160002060000154146106c0576040517f08c379a00000000000000000000000000000000000000000000000000000000081526004016106b79061109f565b60405180910390fd5b60019150509392505050565b60003373ffffffffffffffffffffffffffffffffffffffff166001600085815260200190815260200160002060010160009054906101000a900473ffffffffffffffffffffffffffffffffffffffff1673ffffffffffffffffffffffffffffffffffffffff1614610772576040517f08c379a0000000000000000000000000000000000000000000000000000000008152600401610769906110df565b60405180910390fd5b600073ffffffffffffffffffffffffffffffffffffffff168273ffffffffffffffffffffffffffffffffffffffff161415801561081157506001600084815260200190815260200160002060010160009054906101000a900473ffffffffffffffffffffffffffffffffffffffff1673ffffffffffffffffffffffffffffffffffffffff168273ffffffffffffffffffffffffffffffffffffffff1614155b610850576040517f08c379a00000000000000000000000000000000000000000000000000000000081526004016108479061107f565b60405180910390fd5b600160008481526020019081526020016000206004016001600085815260200190815260200160002060010160009054906101000a900473ffffffffffffffffffffffffffffffffffffffff169080600181540180825580915050600190039060005260206000200160009091909190916101000a81548173ffffffffffffffffffffffffffffffffffffffff021916908373ffffffffffffffffffffffffffffffffffffffff160217905550816001600085815260200190815260200160002060010160006101000a81548173ffffffffffffffffffffffffffffffffffffffff021916908373ffffffffffffffffffffffffffffffffffffffff1602179055507f16b85f49bf01212961345d3016c9a531894accf62eb7680f2045d79185cc0ec08333846040516109859392919061111a565b60405180910390a16001905092915050565b60006001600083815260200190815260200160002060010160009054906101000a900473ffffffffffffffffffffffffffffffffffffffff169050919050565b60025481565b60008054906101000a900473ffffffffffffffffffffffffffffffffffffffff1681565b60016020528060005260406000206000915090508060000154908060010160009054906101000a900473ffffffffffffffffffffffffffffffffffffffff1690806002018054610a50906112e4565b80601f0160208091040260200160405190810160405280929190818152602001828054610a7c906112e4565b8015610ac95780601f10610a9e57610100808354040283529160200191610ac9565b820191906000526020600020905b815481529060010190602001808311610aac57829003601f168201915b505050505090806003018054610ade906112e4565b80601f0160208091040260200160405190810160405280929190818152602001828054610b0a906112e4565b8015610b575780601f10610b2c57610100808354040283529160200191610b57565b820191906000526020600020905b815481529060010190602001808311610b3a57829003601f168201915b5050505050905084565b828054610b6d906112e4565b90600052602060002090601f016020900481019282610b8f5760008555610bd6565b82601f10610ba857805160ff1916838001178555610bd6565b82800160010185558215610bd6579182015b82811115610bd5578251825591602001919060010190610bba565b5b509050610be39190610c71565b5090565b828054828255906000526020600020908101928215610c60579160200282015b82811115610c5f5782518260006101000a81548173ffffffffffffffffffffffffffffffffffffffff021916908373ffffffffffffffffffffffffffffffffffffffff16021790555091602001919060010190610c07565b5b509050610c6d9190610c71565b5090565b5b80821115610c8a576000816000905550600101610c72565b5090565b6000610ca1610c9c846111d5565b6111a4565b905082815260208101848484011115610cb957600080fd5b610cc48482856112a2565b509392505050565b600081359050610cdb816113fd565b92915050565b600082601f830112610cf257600080fd5b8135610d02848260208601610c8e565b91505092915050565b600081359050610d1a81611414565b92915050565b600080600060608486031215610d3557600080fd5b6000610d4386828701610ccc565b935050602084013567ffffffffffffffff811115610d6057600080fd5b610d6c86828701610ce1565b925050604084013567ffffffffffffffff811115610d8957600080fd5b610d9586828701610ce1565b9150509250925092565b600060208284031215610db157600080fd5b6000610dbf84828501610d0b565b91505092915050565b60008060408385031215610ddb57600080fd5b6000610de985828601610d0b565b9250506020610dfa85828601610ccc565b9150509250929050565b6000610e108383610e1c565b60208301905092915050565b610e258161125a565b82525050565b610e348161125a565b82525050565b6000610e4582611215565b610e4f8185611238565b9350610e5a83611205565b8060005b83811015610e8b578151610e728882610e04565b9750610e7d8361122b565b925050600181019050610e5e565b5085935050505092915050565b610ea18161126c565b82525050565b6000610eb282611220565b610ebc8185611249565b9350610ecc8185602086016112b1565b610ed5816113ec565b840191505092915050565b6000610eed601083611249565b91507f496e76616c6964207472616e73666572000000000000000000000000000000006000830152602082019050919050565b6000610f2d601483611249565b91507f50726f7065727479204944206d69736d617463680000000000000000000000006000830152602082019050919050565b6000610f6d600c83611249565b91507f556e617574686f72697a656400000000000000000000000000000000000000006000830152602082019050919050565b6000610fad600d83611249565b91507f4e6f7420746865206f776e6572000000000000000000000000000000000000006000830152602082019050919050565b610fe981611298565b82525050565b60006020820190506110046000830184610e2b565b92915050565b600060208201905061101f6000830184610e98565b92915050565b6000608082019050818103600083015261103f8187610ea7565b905061104e6020830186610e2b565b81810360408301526110608185610e3a565b905081810360608301526110748184610ea7565b905095945050505050565b6000602082019050818103600083015261109881610ee0565b9050919050565b600060208201905081810360008301526110b881610f20565b9050919050565b600060208201905081810360008301526110d881610f60565b9050919050565b600060208201905081810360008301526110f881610fa0565b9050919050565b60006020820190506111146000830184610fe0565b92915050565b600060608201905061112f6000830186610fe0565b61113c6020830185610e2b565b6111496040830184610e2b565b949350505050565b60006080820190506111666000830187610fe0565b6111736020830186610e2b565b81810360408301526111858185610ea7565b905081810360608301526111998184610ea7565b905095945050505050565b6000604051905081810181811067ffffffffffffffff821117156111cb576111ca6113bd565b5b8060405250919050565b600067ffffffffffffffff8211156111f0576111ef6113bd565b5b601f19601f8301169050602081019050919050565b6000819050602082019050919050565b600081519050919050565b600081519050919050565b6000602082019050919050565b600082825260208201905092915050565b600082825260208201905092915050565b600061126582611278565b9050919050565b60008115159050919050565b600073ffffffffffffffffffffffffffffffffffffffff82169050919050565b6000819050919050565b82818337600083830152505050565b60005b838110156112cf5780820151818401526020810190506112b4565b838111156112de576000848401525b50505050565b600060028204905060018216806112fc57607f821691505b602082108114156113105761130f61138e565b5b50919050565b600061132182611298565b91507fffffffffffffffffffffffffffffffffffffffffffffffffffffffffffffffff8214156113545761135361135f565b5b600182019050919050565b7f4e487b7100000000000000000000000000000000000000000000000000000000600052601160045260246000fd5b7f4e487b7100000000000000000000000000000000000000000000000000000000600052602260045260246000fd5b7f4e487b7100000000000000000000000000000000000000000000000000000000600052604160045260246000fd5b6000601f19601f8301169050919050565b6114068161125a565b811461141157600080fd5b50565b61141d81611298565b811461142857600080fd5b5056fea2646970667358221220b6c0ff71899179d54b5b8368f5ca421f95bb2d888f3b07631946fda27a35031764736f6c63430008000033",
  "immutableReferences": {},
  "source": "// SPDX-License-Identifier: UNLICENSED\r\npragma solidity ^0.8.0;\r\n\r\ncontract PropertyOwnership {\r\n    address public contractOwner;\r\n\r\n    struct PropertyDetails {\r\n        uint256 propertyId;\r\n        address currentOwner;\r\n        string propertyAddress; // e.g., \"123 Main St\"\r\n        string description; // Added for listing\r\n        address[] previousOwners; // Chain of ownership\r\n    }\r\n\r\n    mapping(uint256 => PropertyDetails) public properties;\r\n    uint256 public propertyCount;\r\n\r\n    event OwnershipTransferred(uint256 propertyId, address from, address to);\r\n\r\n    constructor() {\r\n        contractOwner = msg.sender;\r\n    }\r\n\r\n    function addProperty(address _currentOwner, string memory _propertyAddress, string memory _description) public returns (bool) {\r\n        require(msg.sender == contractOwner || msg.sender == _currentOwner, \"Unauthorized\");\r\n        propertyCount++;\r\n        address[] memory prev = new address[](0);\r\n        properties[propertyCount] = PropertyDetails(propertyCount, _currentOwner, _propertyAddress, _description, prev);\r\n        if (properties[propertyCount].propertyId != propertyCount) revert(\"Property ID mismatch\");\r\n        return true;\r\n    }\r\n\r\n    function transferOwnership(uint256 _propertyId, address _newOwner) public returns (bool) {\r\n        require(properties[_propertyId].currentOwner == msg.sender, \"Not the owner\");\r\n        require(_newOwner != address(0) && _newOwner != properties[_propertyId].currentOwner, \"Invalid transfer\");\r\n        properties[_propertyId].previousOwners.push(properties[_propertyId].currentOwner);\r\n        properties[_propertyId].currentOwner = _newOwner;\r\n        emit OwnershipTransferred(_propertyId, msg.sender, _newOwner);\r\n        return true;\r\n    }\r\n\r\n    function getPropertyDetails(uint256 _propertyId) public view returns (string memory, address, address[] memory, string memory) {\r\n        PropertyDetails memory prop = properties[_propertyId];\r\n        return (prop.propertyAddress, prop.currentOwner, prop.previousOwners, prop.description);\r\n    }\r\n\r\n    function getCurrentOwner(uint256 _propertyId) public view returns (address) {\r\n        return properties[_propertyId].currentOwner;\r\n    }\r\n}",
  "sourcePath": "E:\\Lakehead\\BlockChain\\Final_Project\\PropertyChain\\contracts\\propertychain-truffle\\contracts\\PropertyOwnership.sol",
  "compiler": {
    "name": "solc",
    "version": "0.8.0+commit.c7dfd78e.Emscripten.clang"
  },
  "schemaVersion": "3.4.16",
  "updatedAt": "2025-08-18T19:03:26.569Z",
  "networkType": "ethereum",
  "devdoc": {
    "kind": "dev",
    "methods": {},
    "version": 1
  },
  "userdoc": {
    "kind": "user",
    "methods": {},
    "version": 1
  }
}