{
  "contractName": "PropertyEscrow",
  "abi": [
    {
      "inputs": [
        {
          "internalType": "address",
          "name": "_seller",
          "type": "address"
        },
        {
          "internalType": "address",
          "name": "_arbiter",
          "type": "address"
        },
        {
          "internalType": "uint256",
          "name": "_propertyId",
          "type": "uint256"
        },
        {
          "internalType": "uint256",
          "name": "_releaseTime",
          "type": "uint256"
        }
      ],
      "stateMutability": "payable",
      "type": "constructor",
      "payable": true
    },
    {
      "anonymous": false,
      "inputs": [
        {
          "indexed": false,
          "internalType": "address",
          "name": "to",
          "type": "address"
        },
        {
          "indexed": false,
          "internalType": "uint256",
          "name": "amount",
          "type": "uint256"
        }
      ],
      "name": "DisputeResolved",
      "type": "event"
    },
    {
      "anonymous": false,
      "inputs": [
        {
          "indexed": false,
          "internalType": "address",
          "name": "buyer",
          "type": "address"
        },
        {
          "indexed": false,
          "internalType": "uint256",
          "name": "amount",
          "type": "uint256"
        }
      ],
      "name": "FundsDeposited",
      "type": "event"
    },
    {
      "anonymous": false,
      "inputs": [
        {
          "indexed": false,
          "internalType": "address",
          "name": "seller",
          "type": "address"
        },
        {
          "indexed": false,
          "internalType": "uint256",
          "name": "amount",
          "type": "uint256"
        }
      ],
      "name": "FundsReleased",
      "type": "event"
    },
    {
      "inputs": [],
      "name": "amount",
      "outputs": [
        {
          "internalType": "uint256",
          "name": "",
          "type": "uint256"
        }
      ],
      "stateMutability": "view",
      "type": "function",
      "constant": true
    },
    {
      "inputs": [],
      "name": "arbiter",
      "outputs": [
        {
          "internalType": "address",
          "name": "",
          "type": "address"
        }
      ],
      "stateMutability": "view",
      "type": "function",
      "constant": true
    },
    {
      "inputs": [],
      "name": "buyer",
      "outputs": [
        {
          "internalType": "address",
          "name": "",
          "type": "address"
        }
      ],
      "stateMutability": "view",
      "type": "function",
      "constant": true
    },
    {
      "inputs": [],
      "name": "fundsReleased",
      "outputs": [
        {
          "internalType": "bool",
          "name": "",
          "type": "bool"
        }
      ],
      "stateMutability": "view",
      "type": "function",
      "constant": true
    },
    {
      "inputs": [],
      "name": "propertyId",
      "outputs": [
        {
          "internalType": "uint256",
          "name": "",
          "type": "uint256"
        }
      ],
      "stateMutability": "view",
      "type": "function",
      "constant": true
    },
    {
      "inputs": [],
      "name": "releaseTime",
      "outputs": [
        {
          "internalType": "uint256",
          "name": "",
          "type": "uint256"
        }
      ],
      "stateMutability": "view",
      "type": "function",
      "constant": true
    },
    {
      "inputs": [],
      "name": "seller",
      "outputs": [
        {
          "internalType": "address",
          "name": "",
          "type": "address"
        }
      ],
      "stateMutability": "view",
      "type": "function",
      "constant": true
    },
    {
      "inputs": [],
      "name": "releaseFunds",
      "outputs": [],
      "stateMutability": "nonpayable",
      "type": "function"
    },
    {
      "inputs": [
        {
          "internalType": "address payable",
          "name": "_to",
          "type": "address"
        }
      ],
      "name": "resolveDispute",
      "outputs": [],
      "stateMutability": "nonpayable",
      "type": "function"
    },
    {
      "inputs": [],
      "name": "refundBuyer",
      "outputs": [],
      "stateMutability": "nonpayable",
      "type": "function"
    }
  ],
  "bytecode": "0x60806040526040516200102738038062001027833981810160405281019062000029919062000195565b336000806101000a81548173ffffffffffffffffffffffffffffffffffffffff021916908373ffffffffffffffffffffffffffffffffffffffff16021790555083600160006101000a81548173ffffffffffffffffffffffffffffffffffffffff021916908373ffffffffffffffffffffffffffffffffffffffff16021790555082600260006101000a81548173ffffffffffffffffffffffffffffffffffffffff021916908373ffffffffffffffffffffffffffffffffffffffff1602179055508160038190555034600481905550806005819055507f543ba50a5eec5e6178218e364b1d0f396157b3c8fa278522c2cb7fd99407d47460008054906101000a900473ffffffffffffffffffffffffffffffffffffffff166004546040516200015592919062000223565b60405180910390a150505050620002c2565b60008151905062000178816200028e565b92915050565b6000815190506200018f81620002a8565b92915050565b60008060008060808587031215620001ac57600080fd5b6000620001bc8782880162000167565b9450506020620001cf8782880162000167565b9350506040620001e2878288016200017e565b9250506060620001f5878288016200017e565b91505092959194509250565b6200020c8162000250565b82525050565b6200021d8162000284565b82525050565b60006040820190506200023a600083018562000201565b62000249602083018462000212565b9392505050565b60006200025d8262000264565b9050919050565b600073ffffffffffffffffffffffffffffffffffffffff82169050919050565b6000819050919050565b620002998162000250565b8114620002a557600080fd5b50565b620002b38162000284565b8114620002bf57600080fd5b50565b610d5580620002d26000396000f3fe608060405234801561001057600080fd5b506004361061009e5760003560e01c8063b91d400111610066578063b91d400114610125578063d846118214610143578063e8a61cc81461015f578063ee7a3b8e14610169578063fe25e00a146101875761009e565b806308551a53146100a357806369d89575146100c15780637150d8ae146100cb578063aa8c217c146100e9578063b564e92614610107575b600080fd5b6100ab6101a5565b6040516100b89190610a7f565b60405180910390f35b6100c96101cb565b005b6100d3610483565b6040516100e09190610a7f565b60405180910390f35b6100f16104a7565b6040516100fe9190610bc7565b60405180910390f35b61010f6104ad565b60405161011c9190610aec565b60405180910390f35b61012d6104c0565b60405161013a9190610bc7565b60405180910390f35b61015d6004803603810190610158919061089a565b6104c6565b005b610167610648565b005b610171610859565b60405161017e9190610bc7565b60405180910390f35b61018f61085f565b60405161019c9190610a7f565b60405180910390f35b600160009054906101000a900473ffffffffffffffffffffffffffffffffffffffff1681565b600554421015610210576040517f08c379a000000000000000000000000000000000000000000000000000000000815260040161020790610b87565b60405180910390fd5b600660009054906101000a900460ff1615610260576040517f08c379a000000000000000000000000000000000000000000000000000000000815260040161025790610ba7565b60405180910390fd5b60008054906101000a900473ffffffffffffffffffffffffffffffffffffffff1673ffffffffffffffffffffffffffffffffffffffff163373ffffffffffffffffffffffffffffffffffffffff1614806103075750600160009054906101000a900473ffffffffffffffffffffffffffffffffffffffff1673ffffffffffffffffffffffffffffffffffffffff163373ffffffffffffffffffffffffffffffffffffffff16145b8061035f5750600260009054906101000a900473ffffffffffffffffffffffffffffffffffffffff1673ffffffffffffffffffffffffffffffffffffffff163373ffffffffffffffffffffffffffffffffffffffff16145b61039e576040517f08c379a000000000000000000000000000000000000000000000000000000000815260040161039590610b07565b60405180910390fd5b600160009054906101000a900473ffffffffffffffffffffffffffffffffffffffff1673ffffffffffffffffffffffffffffffffffffffff166108fc6004549081150290604051600060405180830381858888f19350505050158015610408573d6000803e3d6000fd5b506001600660006101000a81548160ff0219169083151502179055507f221c08a06b07a64803b3787861a3f276212fcccb51c2e6234077a9b8cb13047a600160009054906101000a900473ffffffffffffffffffffffffffffffffffffffff16600454604051610479929190610ac3565b60405180910390a1565b60008054906101000a900473ffffffffffffffffffffffffffffffffffffffff1681565b60045481565b600660009054906101000a900460ff1681565b60055481565b600260009054906101000a900473ffffffffffffffffffffffffffffffffffffffff1673ffffffffffffffffffffffffffffffffffffffff163373ffffffffffffffffffffffffffffffffffffffff1614610556576040517f08c379a000000000000000000000000000000000000000000000000000000000815260040161054d90610b47565b60405180910390fd5b600660009054906101000a900460ff16156105a6576040517f08c379a000000000000000000000000000000000000000000000000000000000815260040161059d90610ba7565b60405180910390fd5b8073ffffffffffffffffffffffffffffffffffffffff166108fc6004549081150290604051600060405180830381858888f193505050501580156105ee573d6000803e3d6000fd5b506001600660006101000a81548160ff0219169083151502179055507ff396531fad1d4dc2cd92386cdea800c92a507f8fe1bdb80313eb32a57481b1dc8160045460405161063d929190610a9a565b60405180910390a150565b62093a806005546106599190610bf3565b421161069a576040517f08c379a000000000000000000000000000000000000000000000000000000000815260040161069190610b67565b60405180910390fd5b600660009054906101000a900460ff16156106ea576040517f08c379a00000000000000000000000000000000000000000000000000000000081526004016106e190610ba7565b60405180910390fd5b60008054906101000a900473ffffffffffffffffffffffffffffffffffffffff1673ffffffffffffffffffffffffffffffffffffffff163373ffffffffffffffffffffffffffffffffffffffff1614610778576040517f08c379a000000000000000000000000000000000000000000000000000000000815260040161076f90610b27565b60405180910390fd5b60008054906101000a900473ffffffffffffffffffffffffffffffffffffffff1673ffffffffffffffffffffffffffffffffffffffff166108fc6004549081150290604051600060405180830381858888f193505050501580156107e0573d6000803e3d6000fd5b506001600660006101000a81548160ff0219169083151502179055507ff396531fad1d4dc2cd92386cdea800c92a507f8fe1bdb80313eb32a57481b1dc60008054906101000a900473ffffffffffffffffffffffffffffffffffffffff1660045460405161084f929190610ac3565b60405180910390a1565b60035481565b600260009054906101000a900473ffffffffffffffffffffffffffffffffffffffff1681565b60008135905061089481610d08565b92915050565b6000602082840312156108ac57600080fd5b60006108ba84828501610885565b91505092915050565b6108cc81610ca3565b82525050565b6108db81610c49565b82525050565b6108ea81610c6d565b82525050565b60006108fd600c83610be2565b91507f556e617574686f72697a656400000000000000000000000000000000000000006000830152602082019050919050565b600061093d600a83610be2565b91507f4f6e6c79206275796572000000000000000000000000000000000000000000006000830152602082019050919050565b600061097d600c83610be2565b91507f4f6e6c79206172626974657200000000000000000000000000000000000000006000830152602082019050919050565b60006109bd601383610be2565b91507f446973707574652077696e646f77206f70656e000000000000000000000000006000830152602082019050919050565b60006109fd600983610be2565b91507f546f6f206561726c7900000000000000000000000000000000000000000000006000830152602082019050919050565b6000610a3d601083610be2565b91507f416c72656164792072656c6561736564000000000000000000000000000000006000830152602082019050919050565b610a7981610c99565b82525050565b6000602082019050610a9460008301846108d2565b92915050565b6000604082019050610aaf60008301856108c3565b610abc6020830184610a70565b9392505050565b6000604082019050610ad860008301856108d2565b610ae56020830184610a70565b9392505050565b6000602082019050610b0160008301846108e1565b92915050565b60006020820190508181036000830152610b20816108f0565b9050919050565b60006020820190508181036000830152610b4081610930565b9050919050565b60006020820190508181036000830152610b6081610970565b9050919050565b60006020820190508181036000830152610b80816109b0565b9050919050565b60006020820190508181036000830152610ba0816109f0565b9050919050565b60006020820190508181036000830152610bc081610a30565b9050919050565b6000602082019050610bdc6000830184610a70565b92915050565b600082825260208201905092915050565b6000610bfe82610c99565b9150610c0983610c99565b9250827fffffffffffffffffffffffffffffffffffffffffffffffffffffffffffffffff03821115610c3e57610c3d610cd9565b5b828201905092915050565b6000610c5482610c79565b9050919050565b6000610c6682610c79565b9050919050565b60008115159050919050565b600073ffffffffffffffffffffffffffffffffffffffff82169050919050565b6000819050919050565b6000610cae82610cb5565b9050919050565b6000610cc082610cc7565b9050919050565b6000610cd282610c79565b9050919050565b7f4e487b7100000000000000000000000000000000000000000000000000000000600052601160045260246000fd5b610d1181610c5b565b8114610d1c57600080fd5b5056fea2646970667358221220d3bb84ef4e7dbe2d6f88f189171ad5a5c3b0f46f007ca258f83573175310275064736f6c63430008000033",
  "immutableReferences": {},
  "source": "// SPDX-License-Identifier: UNLICENSED\r\npragma solidity ^0.8.0;\r\n\r\ncontract PropertyEscrow {\r\n    address public buyer;\r\n    address public seller;\r\n    address public arbiter; // Optional for manual disputes\r\n    uint256 public propertyId;\r\n    uint256 public amount;\r\n    uint256 public releaseTime; // Timestamp for auto-release\r\n    bool public fundsReleased;\r\n\r\n    event FundsDeposited(address buyer, uint256 amount);\r\n    event FundsReleased(address seller, uint256 amount);\r\n    event DisputeResolved(address to, uint256 amount);\r\n\r\n    constructor(address _seller, address _arbiter, uint256 _propertyId, uint256 _releaseTime) payable {\r\n        buyer = msg.sender;\r\n        seller = _seller;\r\n        arbiter = _arbiter;\r\n        propertyId = _propertyId;\r\n        amount = msg.value;\r\n        releaseTime = _releaseTime;\r\n        emit FundsDeposited(buyer, amount);\r\n    }\r\n\r\n    function releaseFunds() external {\r\n        require(block.timestamp >= releaseTime, \"Too early\");\r\n        require(!fundsReleased, \"Already released\");\r\n        require(msg.sender == buyer || msg.sender == seller || msg.sender == arbiter, \"Unauthorized\");\r\n        payable(seller).transfer(amount);\r\n        fundsReleased = true;\r\n        emit FundsReleased(seller, amount);\r\n    }\r\n\r\n    function resolveDispute(address payable _to) external {\r\n        require(msg.sender == arbiter, \"Only arbiter\");\r\n        require(!fundsReleased, \"Already released\");\r\n        _to.transfer(amount);\r\n        fundsReleased = true;\r\n        emit DisputeResolved(_to, amount);\r\n    }\r\n\r\n    // Automated refund if timeout without release (dispute resolution)\r\n    function refundBuyer() external {\r\n        require(block.timestamp > releaseTime + 7 days, \"Dispute window open\");\r\n        require(!fundsReleased, \"Already released\");\r\n        require(msg.sender == buyer, \"Only buyer\");\r\n        payable(buyer).transfer(amount);\r\n        fundsReleased = true;\r\n        emit DisputeResolved(buyer, amount);\r\n    }\r\n}",
  "sourcePath": "E:\\Lakehead\\BlockChain\\Final_Project\\PropertyChain\\contracts\\propertychain-truffle\\contracts\\PropertyEscrow.sol",
  "compiler": {
    "name": "solc",
    "version": "0.8.0+commit.c7dfd78e.Emscripten.clang"
  },
  "schemaVersion": "3.4.16",
  "updatedAt": "2025-08-18T19:03:26.574Z",
  "networkType": "ethereum",
  "devdoc": {
    "kind": "dev",
    "methods": {},
    "version": 1
  },
  "userdoc": {
    "kind": "user",
    "methods": {},
    "version": 1
  }
}